:020000040800F2
:10000000000002201519000865190008651900088C
:10001000651900086519000865190008000000004E
:10002000000000000000000000000000651900084A
:1000300065190008000000009D090008F103000890
:100040006519000865190008651900086519000898
:100050006519000865190008651900086519000888
:1000600065190008090400081504000821040008A7
:100070006519000865190008651900086519000868
:100080006519000865190008651900086519000858
:100090006519000865190008651900086519000848
:1000A0006519000865190008651900086519000838
:1000B0006519000865190008651900086519000828
:1000C0006519000865190008651900086519000818
:1000D0006519000865190008651900086519000808
:1000E00065190008651900086519000865190008F8
:1000F00065190008651900086519000865190008E8
:1001000065190008651900086519000865190008D7
:1001100065190008651900086519000865190008C7
:1001200065190008651900086519000865190008B7
:1001300065190008000000000000000065190008B3
:100140006519000865190008651900086519000897
:100150006519000865190008651900086519000887
:100160006519000865190008651900086519000877
:1001700065190008651900086519000800000000ED
:1001800000000000651900080000000000000000E9
:100190006519000800000000000000006519000853
:1001A00000000000000000000000000065190008C9
:1001B0006519000865190008651900086519000827
:0401C00065190008B5
:1001C4000348044B834202D0034B03B118477047E2
:1001D4000400002004000020000000000548064B35
:1001E4001B1AD90F01EBA301491002D0034B03B131
:1001F400184770470400002004000020000000009D
:1002040010B5064C237843B9FFF7DAFF044B13B15A
:100214000448AFF300800123237010BD04000020C4
:1002240000000000B019000808B5054B1BB10549D2
:100234000548AFF30080BDE80840FFF7CFBF00BF1B
:100244000000000008000020B019000880B584B048
:1002540000AF00F023FC0F4A3B1D92E80300186036
:10026400043319703B1D184601F0B8F90346002BFE
:1002740003D0642000F012FAFBE7032000F0FCFA3C
:10028400F860FB68012B02D100F040F9F5E700F0BB
:1002940043F9F2E7C819000880B500AF00F036F959
:1002A400192000F0FBF900F037F94B2000F0F6F9C3
:1002B40000BFF3E780B582B002AF00F0B5F800F0FC
:1002C40009F9A0210F4800F059F9022201210E4832
:1002D40001F03CF84FF4A07300930C4B0C4A052139
:1002E400094800F009FAA02300930A4B0A4A0121A5
:1002F4000A4800F001FA00F08FF900231846BD46C1
:1003040080BD00BF280200206001002020000020E2
:1003140051020008740100209D020008140200200C
:1003240080B483B000AF03463960FB7197F907309E
:10033400002B0ADB3B68DAB20C4997F9073012014B
:10034400D2B20B4483F800230AE03B68DAB20849CE
:10035400FB7903F00F03043B1201D2B20B441A766B
:1003640000BF0C37BD465DF8047B704700E100E038
:1003740000ED00E080B582B000AF78607B68013B9F
:10038400B3F1807F01D301230FE00A4A7B68013B6C
:1003940053600F214FF0FF30FFF7C2FF054B0022DF
:1003A4009A60044B07221A60002318460837BD469A
:1003B40080BD00BF10E000E080B400AF034B2022FA
:1003C4009A6100BFBD465DF8047B7047000002409F
:1003D40080B400AF044B4FF400129A6100BFBD46D5
:1003E4005DF8047B704700BF0000024080B500AF99
:1003F40000F020F972B600BF00F0DCF862B600BF6E
:1004040000BF80BD80B500AF01F0BAF900BF80BD68
:1004140080B500AF01F0CEF900BF80BD80B500AF5C
:1004240000F0F4FE00BF80BD80B500AF254B1B6C0F
:10043400244A43F080531364224B1B6C224B1B68E9
:10044400214A43F4404313601E4B1B681D4A43F486
:100454008033136000BF1B4B1B6803F40033002B75
:10046400F9D0184B194A5A60164B1B68154A43F0C9
:100474008073136000BF134B1B6803F00073002BE1
:10048400F9D0134B40F205721A600E4B9B6823F4AB
:100494007C4323F0F0030B4A43F414439360094B69
:1004A4009B6823F00303074A43F00203936000BFF1
:1004B400044B9B6803F00C03082BF9D101F0CAF933
:1004C40000BF80BD00380240007000400854400264
:1004D400003C024080B500AF0A4B1B6B094A43F055
:1004E40001031363084B1B68074A23F4406313603A
:1004F400054B1B68044A43F480631360FFF768FFED
:1005040000BF80BD003802400000024080B500AF4B
:10051400FFF752FF00BF80BD80B500AFFFF758FF63
:1005240000BF80BD80B500AF01F094F9074B1B6894
:10053400074AA2FB03235B091846FFF71BFF0021B0
:100544004FF0FF30FFF7ECFE00BF80BD000000203D
:100554001F85EB5180B400AF30BF00BFBD465DF8CE
:10056400047B704780B483B000AF7860396000BF0B
:10057400FDE780B500AFFFF7EDFFFCE780B584B081
:1005840002AF78603960084BFF2283F822203B6871
:1005940000937B68054A0021054800F0ADF800BFD0
:1005A4000837BD4680BD00BF00ED00E077050008B8
:1005B4005403002080B483B000AF124B1B68002B9F
:1005C40002D100237B6006E00E4B1B68B3FA83F371
:1005D400C3F11F037B600C4A7B6852F823303B60F5
:1005E4000A4B1B683A689A4206D0094A3B68136072
:1005F400084B4FF080525A6000BF0C37BD465DF87F
:10060400047B704750030020D0020020C802002061
:10061400CC02002000ED00E080B500AFFFF782FFC0
:1006240072B6FFF7C7FF62B64C210148FFF79AFF85
:10063400D019000880B483B000AF0123FB711FE020
:10064400FB79144A52F823303B603B68002B14D0EA
:100654003B685B68002B10D03B685B685A1E3B68A4
:100664005A603B685B68002B07D1FB7901229A40F2
:10067400094B1B681343084A1360FB790133FB7170
:10068400FB791F2BDCD900BF00BF0C37BD465DF8DA
:10069400047B7047D00200205003002080B582B054
:1006A40000AF786072B6104B1A68104B1B689A4200
:1006B40003D161210E48FFF755FF0C4B1B687A6884
:1006C4005A600A4B1B681B7C1A4601239340DA4389
:1006D400084B1B681340074A1360FFF76BFF62B6B1
:1006E40000BF0837BD4680BDD0020020C8020020EC
:1006F400D01900085003002080B586B000AFF86020
:100704007A603B600B46FB72FB7A1F2B03D96F2187
:100714005548FFF727FFFB7A544A52F82330002B41
:1007240003D070215048FFF71DFF3A683B6A134419
:1007340023F007037B617B69043B7B617B694FF09A
:1007440080721A607B69043B7B617A687B691A60FA
:100754007B69043B7B617B690E221A607B69043BE5
:100764007B617B690C221A607B69043B7B617B693A
:1007740003221A607B69043B7B617B6902221A6055
:100784007B69043B7B617B6901221A607B69043BC2
:100794007B617B6900221A607B69043B7B617B6916
:1007A4000B221A607B69043B7B617B690A221A6015
:1007B4007B69043B7B617B6909221A607B69043B8A
:1007C4007B617B6908221A607B69043B7B617B69DE
:1007D40007221A607B69043B7B617B6906221A60ED
:1007E4007B69043B7B617B6905221A607B69043B5E
:1007F4007B617B6904221A60FB687A691A60FB6872
:10080400FA7A1A74FB6800225A60FB6800229A6024
:10081400FB680022DA603B68013BDB080133DB0044
:100824003B617B69043B7B6105E07B69104A1A608C
:100834007B69043B7B617A693B699A42F5D2FB7A16
:100844000A49FA6841F82320FB7A002B07D0FB7A87
:1008540001229A40074B1B681343064A136000BFEA
:100864001837BD4680BD00BFD0190008D002002053
:10087400EFBEADDE5003002080B584B000AF7860D9
:1008840072B6244B1A68244B1B689A4203D1A821E0
:100894002248FFF767FE7B68002B17D1A9211F4868
:1008A400FFF760FE1C4B1B687A68DA601A4B1B6802
:1008B4001B7C1A4601239340DA43194B1B681340EF
:1008C400174A1360FFF776FE62B672B6124B1B68C6
:1008D4009A687B681340002BE4D00F4B1B680022FE
:1008E400DA600D4B1B689B687A681340FB60FB68F9
:1008F4005B42FA681340BB60074B1B689968BA688F
:10090400D2430A409A6062B6BB6818461037BD46A7
:1009140080BD00BFD0020020C8020020D01900080A
:100924005003002080B586B000AF78603960EFF3E3
:1009340010833B613B697B6172B600BF7B689A6838
:100944003B681A437B689A607B68DB68002B16D08F
:100954007B68DA687B689B681340002B0FD07B6848
:100964000022DA607B681B7C1A46012303FA02F238
:10097400084B1B681343074A1360FFF71BFE7B6990
:10098400FB60FB6883F3108800BF00BF1837BD46C7
:1009940080BD00BF5003002072B60B4909680029CE
:1009A40005D02DE9F00F0849096868460860074931
:1009B40009680868854605490968034A1160BDE865
:1009C400F00F62B6704700BFC8020020CC020020BE
:1009D40080B483B000AF0346FB7197F90730002B56
:1009E4000BDBFB7903F01F02074997F907305B091A
:1009F400012000FA02F241F8232000BF0C37BD4663
:100A04005DF8047B704700BF00E100E080B483B070
:100A140000AF03463960FB7197F90730002B0ADBFE
:100A24003B68DAB20C4997F907301201D2B20B4491
:100A340083F800230AE03B68DAB20849FB7903F043
:100A44000F03043B1201D2B20B441A7600BF0C37D9
:100A5400BD465DF8047B704700E100E000ED00E076
:100A640080B483B000AF0A4B9B689B0A03F0070372
:100A74007B60084B1B6808497A680A441278B3FB08
:100A8400F2F318460C37BD465DF8047B704700BF8F
:100A94000038024000000020001A000880B582B02F
:100AA40000AF314B1B6B304A43F4001343F0020395
:100AB40013632D4B1B6C2C4A43F4001313642A4B11
:100AC4001B6C2A4B1B6823F47023284A43F420230D
:100AD4001360264B5B68254A43F440735360234BF1
:100AE4009B68224A43F470239360204BDB681F4ABF
:100AF40023F47023D3601D4B5B6A23F0FF031B4A6E
:100B040043F0440353621A4B4FF400421A60184BEB
:100B140000221A60FFF7A4FF78607B68154AA2FBE5
:100B240003239B0C3B60124A3B6803F03F03536072
:100B34000F4A7B689B091049A1FB03139B09D361EE
:100B44000B4A3B6801331362094B40F201421A60BD
:100B540006210B20FFF75AFF0B20FFF739FF00BFD8
:100B64000837BD4680BD00BF003802400004024083
:100B74000054004083DE1B43632D3E0580B400AF68
:100B84000C4B1B680B4A43F400731360094B5B69FD
:100B9400084A23F4E0635361064B1B6823F4406363
:100BA400044A43F48063136000BFBD465DF8047BD0
:100BB400704700BF0054004080B588B000AF0346C2
:100BC400FB710B46BB7113467B71664BFB6113E0F3
:100BD400654B5B6903F48063002B03D0FFF7CEFF02
:100BE4000223BAE0FB69013BFB61FB69002B03D1E3
:100BF400FFF7C4FF0123B0E05B4B9B6903F00203E2
:100C0400002BE5D1584B1B68574A43F4807313609B
:100C1400544BBB6113E0544B5B6903F48063002BBA
:100C240003D0FFF7ABFF022397E0BB69013BBB6135
:100C3400BB69002B03D1FFF7A1FF01238DE04A4BD1
:100C44005B6903F00103002BE5D0FB79464A03F00E
:100C5400FE031361434B7B6113E0434B5B6903F475
:100C64008063002B03D0FFF789FF022375E07B69C3
:100C7400013B7B617B69002B03D1FFF77FFF0123DD
:100C84006BE0394B5B6903F00203002BE5D0364B74
:100C94009B69344B3B6113E0334B5B6903F4806322
:100CA400002B03D0FFF76AFF022356E03B69013BA8
:100CB4003B613B69002B03D1FFF760FF01234CE04C
:100CC400294B5B6903F08003002BE5D0264ABB79EE
:100CD4001361244BFB6013E0234B5B6903F48063D3
:100CE400002B03D0FFF74AFF022336E0FB68013BE9
:100CF400FB60FB68002B03D1FFF740FF01232CE0CE
:100D0400194B5B6903F08003002BE5D0164A7B790D
:100D14001361144BBB6013E0134B5B6903F48063F2
:100D2400002B03D0FFF72AFF022316E0BB68013B28
:100D3400BB60BB68002B03D1FFF720FF01230CE04D
:100D4400094B5B6903F00403002BE5D0064B1B68D9
:100D5400054A43F400731360002318462037BD4648
:100D640080BD00BFA08601000054004080B590B053
:100D740000AF3A601A460346FB710B46BB7113463B
:100D8400BB803B68002B02D0BB88002B01D104231D
:100D940027E2924BFB6313E0914B5B6903F480639E
:100DA400002B03D0FFF7EAFE02231AE2FB6B013BA0
:100DB400FB63FB6B002B03D1FFF7E0FE012310E282
:100DC400874B9B6903F00203002BE5D1844B1B681E
:100DD400834A43F480631360814B1B68804A43F465
:100DE400807313607D4BBB6313E07D4B5B6903F43D
:100DF4008063002B03D0FFF7C1FE0223F1E1BB6B3C
:100E0400013BBB63BB6B002B03D1FFF7B7FE012390
:100E1400E7E1734B5B6903F00103002BE5D0FB7939
:100E24006F4A03F0FE0313616C4B7B6313E06C4B5E
:100E34005B6903F48063002B03D0FFF79FFE02235A
:100E4400CFE17B6B013B7B637B6B002B03D1FFF713
:100E540095FE0123C5E1624B5B6903F00203002B9D
:100E6400E5D05F4B9B695D4B3B6313E05C4B5B6977
:100E740003F48063002B03D0FFF780FE0223B0E16C
:100E84003B6B013B3B633B6B002B03D1FFF776FECF
:100E94000123A6E1524B5B6903F08003002BE5D0EC
:100EA4004F4ABB7913614D4BFB6213E04C4B5B69BA
:100EB40003F48063002B03D0FFF760FE022390E16C
:100EC400FB6A013BFB62FB6A002B03D1FFF756FE72
:100ED400012386E1424B5B6903F00403002BE5D058
:100EE4003F4B1B683E4A43F4807313603B4BBB6229
:100EF40013E03B4B5B6903F48063002B03D0FFF7E3
:100F04003DFE02236DE1BB6A013BBB62BB6A002B61
:100F140003D1FFF733FE012363E1314B5B6903F037
:100F24000103002BE5D0FB7943F00103DAB22C4B2B
:100F34001A612A4B7B6213E0294B5B6903F48063DB
:100F4400002B03D0FFF71AFE02234AE17B6A013B20
:100F54007B627B6A002B03D1FFF710FE012340E183
:100F64001F4B5B6903F00203002BE5D0BB88012B08
:100F740038D11B4B1B681A4A23F48063136072B682
:100F840000BF174B9B69164B1B68154A43F400734B
:100F9400136062B600BF114B3B6213E0104B5B69F8
:100FA40003F48063002B03D0FFF7E8FD022318E16C
:100FB4003B6A013B3B623B6A002B03D1FFF7DEFD3A
:100FC40001230EE1064B5B6903F04003002BE5D0DF
:100FD400034B1B69DAB23B681A70FBE0A086010080
:100FE40000540040BB88022B4AD1804B1B687F4AC7
:100FF40043F4006313607D4B1B687C4A23F48063D5
:10100400136072B600BF794B9B6962B600BF784B20
:10101400FB6113E0754B5B6903F48063002B03D021
:10102400FFF7ACFD0223DCE0FB69013BFB61FB69DC
:10103400002B03D1FFF7A2FD0123D2E06B4B5B69C8
:1010440003F00403002BE5D072B600BF674B1B68A6
:10105400664A43F400731360644B1B69DAB23B685D
:101064001A7062B600BF614B1A693B680133D2B291
:101074001A705E4B1B685D4A23F400631360A9E099
:101084005A4B9B6900237B8336E0594B7B6113E009
:10109400564B5B6903F48063002B03D0FFF76EFDAE
:1010A40002239EE07B69013B7B617B69002B03D1BA
:1010B400FFF764FD012394E04C4B5B6903F04003AC
:1010C400002BE5D0494B1A697B8B591C798319464F
:1010D4003B680B44D2B21A70444B5B6903F00403BF
:1010E400002B09D0414B1A697B8B591C7983194613
:1010F4003B680B44D2B21A70BB88033B9BB27A8B19
:101104009A42C2D33A4B3B6113E0384B5B6903F418
:101114008063002B03D0FFF731FD022361E03B69BC
:10112400013B3B613B69002B03D1FFF727FD012302
:1011340057E02E4B5B6903F00403002BE5D02B4BE7
:101144001B682A4A23F48063136072B600BF274BDE
:101154001A697B8B591C798319463B680B44D2B2BC
:101164001A70224B1B68214A43F4007313601F4B0F
:101174001A697B8B591C798319463B680B44D2B29C
:101184001A7062B600BF1A4BFB6013E0174B5B6921
:1011940003F48063002B03D0FFF7F0FC022320E06C
:1011A400FB68013BFB60FB68002B03D1FFF7E6FC07
:1011B400012316E00D4B5B6903F04003002BE5D0DF
:1011C4000A4B1A697B8B591C798319463B680B447B
:1011D400D2B21A70054B1B68044A43F4806313604F
:1011E400002318464037BD4680BD00BF0054004070
:1011F400A086010080B400AF034B3D229A6000BF7B
:10120400BD465DF8047B70470060024080B582B043
:1012140000AF234B1B687B60224B1B68214A43F4BD
:1012240000731360204B1B681F4A23F001031360F3
:1012340000BF1D4B1B6803F00103002BF9D1194BB0
:101244005B68184A23F4C05353607B6803F00803B7
:10125400002B03D0154B06221A700BE07B6803F0B9
:101264002003002B03D0114B00221A7002E00F4B15
:1012740006221A70FFF7BEFF0D4B00221A700D4BA9
:101284001B68002B07D00B4B1B680B4A12681146D6
:101294001846FFF747FB00BF0837BD4680BD00BFB7
:1012A40000600240005400401060024070030020BF
:1012B40071030020680300206C03002080B483B015
:1012C40000AF0346FB7197F90730002B0BDBFB796A
:1012D40003F01F02074997F907305B09012000FA60
:1012E40002F241F8232000BF0C37BD465DF8047BB1
:1012F400704700BF00E100E080B483B000AF034654
:101304003960FB7197F90730002B0ADB3B68DAB2CE
:101314000C4997F907301201D2B20B4483F8002329
:101324000AE03B68DAB20849FB7903F00F03043B97
:101334001201D2B20B441A7600BF0C37BD465DF8D9
:10134400047B704700E100E000ED00E080B485B06C
:1013540000AFF860B9607A60074AFB681360074A17
:10136400BB681360064A7B68136000BF1437BD4630
:101374005DF8047B704700BF7403002078030020ED
:101384007C03002080B485B000AF78600B4B1B68F1
:101394000B4AA2FB03231A0D7B6802FB03F3FB60D9
:1013A40000E000BFFB685A1EFA60002BF9D100BFB1
:1013B40000BF1437BD465DF8047B70470000002071
:1013C40083DE1B4380B582B000AF786003E04FF446
:1013D4007A70FFF7D7FF7B685A1E7A60002BF6D12C
:1013E40000BF00BF0837BD4680BD80B582B000AFE6
:1013F40003460A46FB711346BB71BA79FB79194659
:101404003020FFF7D9FB0346002B01D1002300E075
:10141400032318460837BD4680BD80B582B000AFAF
:1014240003460A46FB711346BB71BA79FB79194628
:10143400D020FFF7C1FB0346002B01D1002300E0BD
:10144400032318460837BD4680BD80B582B000AF7F
:1014540003463960FB711346BB80BB88F9793A684F
:101464003020FFF783FC0346002B01D1002300E06A
:10147400032318460837BD4680BD80B582B000AF4F
:1014840003463960FB711346BB80BB88F9793A681F
:10149400D020FFF76BFC0346002B01D1002300E0B2
:1014A400032318460837BD4680BD80B584B000AF1D
:1014B4007860396007F10E03012219460020FFF716
:1014C400C4FF07F10E03012219460020FFF7BDFFF8
:1014D4000346FB73FB7B002B01D0FB7B24E07B6882
:1014E400002B02D0BA7B7B681A70BB7B1E2B01D009
:1014F400012319E007F10E03012219460020FFF72A
:10150400BCFF0346FB73FB7B002B01D0FB7B0BE092
:101514003B68002B02D0BA7B3B681A70BB7B0F2B55
:1015240001D0022300E0002318461037BD4680BDD9
:1015340080B500AF254B1B6B244A43F002031363B1
:10154400234B1B68224A23F470731360204BDB681F
:101554001F4A23F47073D3601C4B5B6C1B4A43F427
:1015640080435364194B5B6C1A4B9B6823F47043A0
:10157400184A43F480539360164BDB6823F00F033F
:10158400144A43F00103D360134B9B68124A43F09F
:1015940018039360104BDB680F4A23F01803D360E1
:1015A4000D4B1B680C4A43F01803136005210920F6
:1015B400FFF7A2FE05210A20FFF79EFE0920FFF790
:1015C4007DFE0A20FFF77AFE00BF80BD003802408E
:1015D4000004024000380140003C014080B584B062
:1015E40000AF78607B68002B01D10323C3E00021A6
:1015F4000020FFF75AFF0346FB73FB7B002B01D04F
:10160400FB7BB8E0B6217E20FFF7EFFE0220FFF758
:10161400D9FEB6211420FFF700FF3220FFF7D2FED7
:1016240007F10E03012219460020FFF70EFF0220E6
:10163400FFF7C8FE00217C20FFF7D7FE0346FB73AB
:10164400FB7B002B01D0FB7B95E00520FFF7BAFE66
:1016540004217D20FFF7C9FE0346FB73FB7B002BAF
:1016640001D0FB7B87E03220FFF7ACFE7B681B7860
:1016740019464120FFF7B9FE0346FB73FB7B002BA1
:1016840001D0FB7B77E07B685B785BB21B015AB2CD
:101694007B689B785BB213435BB2DBB21946402094
:1016A400FFF7A3FE0346FB73FB7B002B01D0FB7B00
:1016B40061E00A215320FFF798FE0346FB73FB7B8E
:1016C400002B01D0FB7B56E004215820FFF78DFE50
:1016D4000346FB73FB7B002B01D0FB7B4BE07B6859
:1016E400DB7819460F20FFF798FE0346FB73FB7B5C
:1016F400002B01D0FB7B3EE07B681B791946102050
:10170400FFF78BFE0346FB73FB7B002B01D0FB7BB7
:1017140031E000211120FFF780FE0346FB73FB7BC1
:10172400002B01D0FB7B26E01E20FFF74BFE80211F
:101734001520FFF772FE0346FB73FB7B002B01D0E1
:10174400FB7B18E005211620FFF767FE0346FB73B9
:10175400FB7B002B01D0FB7B0DE081211820FFF7E0
:101764005CFE0346FB73FB7B002B01D0FB7B02E09A
:10177400FFF7DEFE002318461037BD4680BD00008B
:1017840080B500AF084B08225A61084B1B68002B38
:1017940007D0064B1B68064A126811461846FFF725
:1017A400C1F800BF80BD00BF003C014074030020AD
:1017B4007803002080B500AF084B10225A61084B13
:1017C4001B68002B07D0064B1B68064A126811469B
:1017D4001846FFF7A7F800BF80BD00BF003C0140DA
:1017E400740300207C03002080B400AF164BD3F8B0
:1017F4008830154A43F47003C2F88830134B1B68D1
:10180400124A43F001031360104B00229A600F4BFD
:101814001B680E4A23F0847323F4803313600B4B4C
:101824000B4A5A60094B1B68084A23F4802313604F
:10183400064B0022DA60044B4FF000629A6000BF4E
:10184400BD465DF8047B704700ED00E000380240BF
:101854001030002480B487B000AF284B9B6803F09D
:101864000C03082B0CD0082B33D8002B02D0042BEC
:1018740003D02EE0224B7B612EE0224B7B612BE0D8
:101884001E4B5B6803F03F033B611C4B5B689B0989
:10189400C3F30803FB60194B5B681B0C03F00303E1
:1018A40001335B00BB60154B5B6803F48003002BC2
:1018B40001D0144B00E0124B7B607A683B69B2FBA9
:1018C400F3F3FA6803FB02F2BB68B2FBF3F37B6148
:1018D40002E00B4B7B6100BF084B9B681B0903F0C4
:1018E4000F03094AD35C1A467B69D340074A136045
:1018F40000BF1C37BD465DF8047B704700380240CA
:101904000024F40000127A00081A000800000020E5
:10191400DFF834D0FFF768FF0C480D490D4A002367
:1019240002E0D458C4500433C4188C42F9D30A4A90
:101934000A4C002301E013600432A242FBD300F0FE
:1019440011F8FEF7B7FC70470000022000000020E9
:1019540004000020201A0008040000208003002056
:10196400FEE7000070B50D4B0D4D5B1B9C1000266F
:10197400A64209D100F01AF80A4D0B4B5B1B9C10D0
:101984000026A64205D170BD55F8043B98470136A0
:10199400EEE755F8043B98470136F2E7181A0008B9
:1019A400181A0008181A00081C1A0008F8B500BF15
:1019B400F8BC08BC9E467047F8B500BFF8BC08BC2C
:0419C4009E46704784
:1019C800030A0A0003000000433A2F557365727337
:1019D8002F48616C696C2F53544D333243756265DF
:1019E8004944452F6D696E695F72746F732F6D6915
:1019F800726F732E630000000101010102040810D8
:101A080000000000000000000102030406070809A6
:041A18002D02000893
:041A1C0005020008B7
:041A20000024F400AA
:0400000508001915C1
:00000001FF
